{
  "contractName": "Simple",
  "abi": [
    {
      "constant": true,
      "inputs": [],
      "name": "info",
      "outputs": [
        {
          "internalType": "string",
          "name": "",
          "type": "string"
        }
      ],
      "payable": false,
      "stateMutability": "view",
      "type": "function"
    },
    {
      "constant": true,
      "inputs": [],
      "name": "owner",
      "outputs": [
        {
          "internalType": "address",
          "name": "",
          "type": "address"
        }
      ],
      "payable": false,
      "stateMutability": "view",
      "type": "function"
    },
    {
      "constant": false,
      "inputs": [
        {
          "internalType": "string",
          "name": "data",
          "type": "string"
        }
      ],
      "name": "setInfo",
      "outputs": [],
      "payable": false,
      "stateMutability": "nonpayable",
      "type": "function"
    }
  ],
  "bytecode": "0x6080604052336000806101000a81548173ffffffffffffffffffffffffffffffffffffffff021916908373ffffffffffffffffffffffffffffffffffffffff16021790555034801561005057600080fd5b50610452806100606000396000f3fe608060405234801561001057600080fd5b50600436106100415760003560e01c8063370158ea146100465780638da5cb5b146100c9578063937f6e7714610113575b600080fd5b61004e6101ce565b6040518080602001828103825283818151815260200191508051906020019080838360005b8381101561008e578082015181840152602081019050610073565b50505050905090810190601f1680156100bb5780820380516001836020036101000a031916815260200191505b509250505060405180910390f35b6100d161026c565b604051808273ffffffffffffffffffffffffffffffffffffffff1673ffffffffffffffffffffffffffffffffffffffff16815260200191505060405180910390f35b6101cc6004803603602081101561012957600080fd5b810190808035906020019064010000000081111561014657600080fd5b82018360208201111561015857600080fd5b8035906020019184600183028401116401000000008311171561017a57600080fd5b91908080601f016020809104026020016040519081016040528093929190818152602001838380828437600081840152601f19601f820116905080830192505050505050509192919290505050610291565b005b60018054600181600116156101000203166002900480601f0160208091040260200160405190810160405280929190818152602001828054600181600116156101000203166002900480156102645780601f1061023957610100808354040283529160200191610264565b820191906000526020600020905b81548152906001019060200180831161024757829003601f168201915b505050505081565b6000809054906101000a900473ffffffffffffffffffffffffffffffffffffffff1681565b6000809054906101000a900473ffffffffffffffffffffffffffffffffffffffff1673ffffffffffffffffffffffffffffffffffffffff163373ffffffffffffffffffffffffffffffffffffffff1614610336576040517f08c379a00000000000000000000000000000000000000000000000000000000081526004018080602001828103825260288152602001806103f66028913960400191505060405180910390fd5b806001908051906020019061034c929190610350565b5050565b828054600181600116156101000203166002900490600052602060002090601f016020900481019282601f1061039157805160ff19168380011785556103bf565b828001600101855582156103bf579182015b828111156103be5782518255916020019190600101906103a3565b5b5090506103cc91906103d0565b5090565b6103f291905b808211156103ee5760008160009055506001016103d6565b5090565b9056fe546869732066756e6374696f6e206973207265737472696374656420746f20746865204f776e6572a265627a7a72315820e98ca908ada0b518a3747866464e702998b02f499972bd844ca1e374c4b95b2b64736f6c63430005100032",
  "source": "// SPDX-License-Identifier: MIT\npragma solidity >=0.4.22 <0.9.0;\n\ncontract Simple{\n\n    address public owner = msg.sender;\n    string public info ;\n\n    modifier restricted() {\n        require(msg.sender==owner,\n        \"This function is restricted to the Owner\"\n        );\n        _;\n    }\n\n    function setInfo(string memory data) public restricted{\n        info = data;\n    }\n}\n/**\n    Terminal call\n    ~ truffle develop \n\n    -> Console of the truffle <-\n    ~ compile \n    ~ migrate \n\n    --------------->>>>>\n    //Run some command inside the truffle console \n\n    // Get the acccounts \n    // make sure the Num of accounts is the same as Ganache \n\n    let accounts = await web3.eth.getAccounts()\n    accounts\n\n\n    // get the instance to call the contract \n\n    let instance = await Simple.deployed()\n    instance.setInfo(abs)\n\n    //Now you shoulde see the change in ganache -> new transaction  should be made\n\n\n */",
  "sourcePath": "/Users/stanley0010/Development/halo-passport-app/contracts/Simple.sol",
  "compiler": {
    "name": "solc",
    "version": "0.5.16+commit.9c3226ce.Emscripten.clang"
  },
  "schemaVersion": "3.3.3",
  "updatedAt": "2021-01-30T13:02:35.487Z",
  "networkType": "ethereum",
  "devdoc": {
    "methods": {}
  },
  "userdoc": {
    "methods": {}
  }
}